:060000000A128A11122809
:10000800FE00030EF6000408F7000A08F800831241
:1000180003137F08F9000A128A111C280A128A1190
:100028001528FC01FD01BE0183010A128A11DD2C8D
:100038008C1E1F2A0A128A1185250A128A11F500B8
:100048007508FD007D080A128A11F0250A128A1126
:100058007D08653A031DA12892300A128A11692584
:100068000A128A110A128A1185250A128A11F500C4
:100078007508FC007C080A128A11F0250A128A11F8
:1000880083120313BE014F300A128A1169250A121E
:100098008A110A128A1185250A128A11F500750833
:1000A800FD007D080A128A11F0250A128A117D08BE
:1000B8000A3A0319A1280A128A11BA250A128A11C2
:1000C8000A128A11D2250A128A117C08F5007507CE
:1000D800A03E0A128A119D250A128A11831203135F
:1000E8003E080A128A119D250A128A117D080A12F1
:1000F8008A119D250A128A110A128A11BA250A1232
:100108008A110A128A11C7250A128A118312031347
:100118003E08FF3A031D9C28BE017C08073A031DD0
:100128009728FC014D280130F5007508FC074D287B
:100138000130F5007508BE074D287D086C3A031D8F
:100148000B2992300A128A1169250A128A110A1299
:100158008A1185250A128A11F5007508FC007C08A9
:100168000A128A11F0250A128A1183120313BE019A
:1001780074300A128A1169250A128A110A128A1120
:10018800BA250A128A110A128A11D2250A128A116C
:10019800A0300A128A119D250A128A1100300A120B
:1001A8008A119D250A128A110A128A11DD250A125E
:1001B8008A11A1300A128A119D250A128A110A127F
:1001C8008A11AC250A128A11F5007508FD000A1279
:1001D8008A11F8250A128A110A128A11BA250A12F6
:1001E8008A110A128A11C7250A128A117D080A1271
:1001F8008A11F0250A128A11831203133E08FF3A66
:1002080003190B290130F5007508BE07C2287D08BF
:10021800773A031D802992300A128A1169250A1239
:100228008A110A128A1185250A128A11F5007508A1
:10023800FC007C080A128A11F0250A128A1183121E
:100248000313BE014F300A128A1169250A128A1156
:100258000A128A1185250A128A11F5007508FD000F
:100268007D080A128A11F0250A128A117D080A3AB5
:10027800031980290A128A11BA250A128A110A1248
:100288008A11D2250A128A117C08F5007507A03E4A
:100298000A128A119D250A128A11831203133E0835
:1002A8000A128A119D250A128A117D080A128A11DA
:1002B8009D250A128A110A128A11BA250A128A1170
:1002C8000A128A11C7250A128A11831203133E08DB
:1002D800FF3A031D7B29BE017C08073A031D7629D6
:1002E800FC012C290130F5007508FC072C29013088
:1002F800F5007508BE072C297D08643A031DB82946
:100308000A128A11BA250A128A110A128A11D225EA
:100318000A128A11FB0108307B020318AE29FA0180
:100328007B08F5007507A03E0A128A119D250A125E
:100338008A117A080A128A119D250A128A11303008
:100348000A128A119D250A128A110130F5007508D2
:10035800FA0794290A128A11BA250A128A110A126E
:100368008A11C7250A128A117D08723A031D192AB3
:10037800FC0183120313BE01C5300A128A116925D4
:100388000A128A11D029BE017C08073A0319192AD2
:100398000130F5007508FC070A128A11BA250A12FD
:1003A8008A110A128A11D2250A128A11A0300A1259
:1003B8008A119D250A128A1100300A128A119D2578
:1003C8000A128A110A128A11DD250A128A11A1302D
:1003D8000A128A119D250A128A110A128A11AC255D
:1003E8000A128A11F5007508FD000A128A11F8250B
:1003F8000A128A110A128A11BA250A128A110A12D5
:100408008A11C7250A128A117D080A128A11F02555
:100418000A128A11831203133E08FF3A0319C729E7
:100428000130F5007508BE07D02929300A128A1153
:1004380069250A128A11790883120313FF007808C4
:100448008A0077088400760E8300FE0E7E0E09006F
:1006000003308A000408840A820700340A340D3457
:1006100020342D342D342D342D342D342D342D34DF
:1006200020344534533454344F34553452344F34D9
:100630002034443445342034503449344C34483424
:10064000413420342D342D342D342D342D342D349B
:100650002D3420340A340D34203400340A34493423
:100660006E3466346F3472346D34653420347534CE
:100670006D34203463346F346D3461346E346434DB
:100680006F342034283465342C3420346C342C34CA
:10069000203477342C34203464342C3420347234B5
:1006A00029343A34203400340A3449346E34663400
:1006B0006F3472346D34653420346F3473342034C5
:1006C0006434613464346F347334203461342034DE
:1006D00073346534723465346D3420346734723465
:1006E00061347634613464346F3473343A34203492
:1006F00000340A344434613464346F347334203445
:1007000065346E3463346F346E34743472346134EF
:1007100064346F34733420346E346F342034623474
:1007200061346E3463346F343A34203400340A3424
:1007300049346E3466346F3472346D346534203429
:100740006F342034623461346E3463346F34203457
:100750002834303420342D342034373429343A349A
:100760002034003449344E3449344334493441341C
:100770004C3449345A3441344E3444344F342034A8
:100780004F3420345034493443342E342E342E34F4
:100790000A3400340A344434613464346F347334BA
:1007A000203465346E3463346F346E347434723490
:1007B000613464346F3473343A3420340034831237
:1007C0000313AA01A31FF12BA009A109A209A309E0
:1007D000A00A0319A10A0319A20A0319A30AAA016C
:1007E000AA0AA71F022CA409A509A609A709A40AF9
:1007F0000319A50A0319A60A0319A70A0130A800BC
:100800002808AA060030AE000030AD000030AC0071
:100810000030AB0023082204210420040319572CC4
:10082000A901A90AA31B222C0130A8000310A00DC6
:10083000A10DA20DA30DA80B162C0130A8002808AD
:10084000A907122C0130A8000310AB0DAC0DAD0DA3
:10085000AE0DA80B242C23082702031D392C2208D7
:100860002602031D392C21082502031D392C2008DE
:100870002402031C4A2C2008A4022108031C210F77
:10088000A5022208031C220FA6022308031C230F23
:10089000A7022B1401300310A30CA20CA10CA00C76
:1008A000FF3E031D4B2C0130A902031D222C2A08F8
:1008B0000319652CAB09AC09AD09AE09AB0A0319E4
:1008C000AC0A0319AD0A0319AE0A2E08A3002D08BD
:1008D000A2002C08A1002B08A0000800831203131B
:1008E000B901BA0134083304031D882C2F08B50060
:1008F0003008B6003108B7003208B80006300310DF
:10090000B50DB60DB70DB80DFF3E031D7F2C9A2C0B
:1009100083122F08B5003008B6003108B70032083E
:10092000B80004300310B50DB60DB70DB80DFF3E7D
:10093000031D922C3808A3003708A2003608A10036
:100940003508A0000130A7001930A6004030A500EE
:100950000030A4000A128A11DF230A128A118312BE
:1009600003132008FF3EB90021080318013EFF3E93
:10097000BA003908831603139900981718139816AC
:10098000181283120313330883160313031D18155B
:1009900003191811981418108312031398171813B9
:1009A000981218169811181198101810831603131E
:1009B0008C16831203138C120800983083160313CD
:1009C0008700D8308312031387000A128A114A2540
:1009D0000A128A11003083120313B2000030B100F2
:1009E0004B30B0000030AF000130B3000030B40035
:1009F0000A128A116E240A128A110B178B17AD3056
:100A00000A128A112A250A128A112A300A128A1118
:100A10002A250A128A11183083120313BD0061308F
:100A2000BC006E30BB00BB0B132DBC0B132DBD0BDC
:100A3000132D00002F3083120313BD00C130BC0002
:100A4000E030BB00BB0B222DBC0B222DBD0B222D99
:100A5000292D1A2D83120313A200220884000A12E2
:100A60008A1100230A128A1100380319080022088B
:100A700084000A128A1100230A128A110A128A11AA
:100A8000E8250A128A11013083120313A1002108FC
:100A9000A2072D2D83160313911311139112111216
:100AA00091111111911011100A3093009417141321
:100AB000941214129411141194101410831203132D
:100AC00094131413941614129415141194101410F2
:100AD0000800F200720884000A128A1100230A1228
:100AE0008A11003803190800720884000A128A115A
:100AF00000230A128A110A128A11F0250A128A1199
:100B00000130F1007108F2076A2D8312031398185F
:100B10008E2D1A08F3007308F4009A2D01300A1282
:100B20008A1169258312031318121A08F300730837
:100B3000F40018168C1274080800F2000A128A11C8
:100B4000BA250A128A1172088312031393008316BE
:100B50000313141C0800A72D0A128A11BA250A12C1
:100B60008A11831603139115141CB42D83120313D9
:100B70001308080083160313140CF000700C0139DD
:100B8000F10011081F39710403190800BA2D0A1267
:100B90008A11BA250A128A11831603131115111D21
:100BA0000800CF2D0A128A11BA250A128A1183165B
:100BB00003131114111C0800DA2D0A128A11BA2528
:100BC0000A128A11831603139114911C0800E52D53
:100BD00083120313A0000C1EEB2D200899000800BF
:100BE000F000831203130C1EF12D70089900080009
:100BF0000A128A11BA2583160313911611160800DA
:02400E0032FF7F
:00000001FF
